S014000070726F6A65637420746573742E7372656339
S113000056C0000071C000006FC000006DC0000049
S11300106BC0000069C0000067C0000065C000003C
S113002063C0000061C000005FC000005DC000004C
S11300305BC000008FC0000057C0000055C0000026
S113004053C0000051C000004FC000004DC000006C
S11300504BC0000049C0000047C0000045C000007C
S113006043C0000041C000003FC000003DC000008C
S11300703BC0000039C0000037C0000035C000009C
S113008033C0000031C000002FC0000056016001E1
S1130090640168016C0170017401780183019801A5
S11300A09E01A401AA01B001B601BC01C30111243F
S11300B01FBECFEFD0E4DEBFCDBF11E0A0E0B1E0C2
S11300C0E0EFF6E000E00BBF02C007900D92A03213
S11300D0B107D9F721E0A0E2B1E001C01D92AC3232
S11300E0B207E1F762D102C38BCF60931C01709316
S11300F01D0180931E0190931F016093260170934C
S11301002701809328019093290108958BE080931F
S113011081008DE790E0909389008093880082E0CD
S113012080936F00109285001092840080911C01CE
S113013090911D01A0911E01B0911F018093260191
S113014090932701A0932801B09329018FB7806869
S11301508FBF08951F920F920FB60F9211248F93A1
S11301609F93AF93BF938091260190912701A09113
S11301702801B09129010197A109B10980932601B1
S113018090932701A0932801B0932901892B8A2BEE
S11301908B2B99F481E080932A0180911C0190912A
S11301A01D01A0911E01B0911F018093260190931F
S11301B02701A0932801B0932901BF91AF919F918A
S11301C08F910F900FBE0F901F901895CF92DF92D2
S11301D0EF92FF926B017C019B01AC0160912001C5
S11301E0709121018091220190912301FDD08823F7
S11301F009F440C020E030E0A901C701B601F4D001
S1130200811104C085B5887085BD03C085B5836040
S113021085BD28E539E344E75FE3C701B601E4D0CF
S113022088231CF48FEF87BD1CC020E034E244EF28
S113023056E4C701B601EAD1181614F417BC11C06C
S113024020E030E040E053E4C701B601E3D19B0174
S1130250AC0160E074E284EF9AE4CAD031D1615019
S113026067BD16BCC0922001D0922101E092220108
S1130270F0922301FF90EF90DF90CF90089581E4F6
S113028084BD8BE085BD60E070E0CB019FCF089515
S113029014BC15BC0895E0912B018E2F90E0893099
S11302A09105C8F5FC01EA5BFF4F17C2F1DF8091AD
S11302B02501882381F1E3DF81E080932B0138C09D
S11302C082E080932B013AC083E080932B013CC0F1
S11302D084E080932B013EC085E080932B0140C0D5
S11302E086E080932B0142C087E080932B0144C0B9
S11302F080912501811140C088E080932B011092E8
S11303002401BDDF08C080912401883008F43BC07B
S113031010922B010895E0912B018E2F90E0FC01A7
S11303203197E830F10508F03FC0E15BFF4FD5C1DC
S113033064EA70ED82E893E449CF089564EA70EDCD
S113034084EA93E443CF089560E070E084EC93E49E
S11303503DCF089564EA70EF86EF93E437CF0895B4
S113036060E070ED84E294E431CF08956CE57FEFB2
S113037083E494E42BCF089568E471EF86E794E472
S113038025DF86CF0895E0912401EF5FE0932401F7
S1130390F0E0EE0FFF1FEE0FFF1FE050FF4F6081F4
S11303A071818281938112CF089511B88FEF82B940
S11303B084B915B864DF60E070E080E89FE306DF8D
S11303C064E670E080E090E090DEA0DE10922B0105
S11303D080B18095809325015EDF80912A01882376
S11303E0E1F310922A01F4CF9CD008F481E008953F
S11303F00CD0D2C0CAD040F0C1D030F021F45F3F5D
S113040019F0B3C05111FCC0B6C0D7D098F39923EA
S1130410C9F35523B1F3951B550BBB27AA276217C4
S11304207307840738F09F5F5F4F220F331F441F09
S1130430AA1FA9F333D00E2E3AF0E0E830D0915041
S11304405040E695001CCAF729D0FE2F27D0660F2E
S1130450771F881FBB1F261737074807AB07B0E86D
S113046009F0BB0B802DBF01FF2793585F4F2AF083
S11304709E3F510568F079C0C3C05F3FECF3983EDE
S1130480DCF3869577956795B795F7959F5FC9F7E0
S1130490880F911D9695879597F90895E1E0660F69
S11304A0771F881FBB1F621773078407BA0720F0E2
S11304B0621B730B840BBA0BEE1F88F7E09508954B
S11304C004D06894B1119CC008957FD088F09F57E0
S11304D090F0B92F9927B751A0F0D1F0660F771F8C
S11304E0881F991F1AF0BA95C9F712C0B13081F06C
S11304F086D0B1E0089583C0672F782F8827B85F2E
S113050039F0B93FCCF3869577956795B395D9F7CC
S11305103EF490958095709561957F4F8F4F9F4FD6
S11305200895990F0008550FAA0BE0E8FEEF161680
S11305301706E807F907C0F012161306E407F507D3
S113054098F0621B730B840B950B39F40A2661F047
S1130550232B242B252B21F408950A2609F4A140EA
S1130560A6958FEF811D811D089597F99F6780E8F7
S113057070E060E008959FEF80EC089500240A94F1
S11305801616170618060906089500240A9412166A
S11305901306140605060895092E0394000C11F49D
S11305A0882352F0BB0F40F4BF2B11F460FF04C04A
S11305B06F5F7F4F8F4F9F4F089557FD9058440FA3
S11305C0551F59F05F3F71F04795880F97FB991FAE
S11305D061F09F3F79F0879508951216130614066B
S11305E0551FF2CF4695F1DF08C0161617061806F8
S11305F0991FF1CF86957105610508940895E894D3
S1130600BB2766277727CB0197F908958ADF08F47B
S11306108FEF08950BD0C0CFB1DF28F0B6DF18F00C
S1130620952309F0A2CFA7CF1124EACFC6DFA0F308
S1130630959FD1F3950F50E0551F629FF001729F73
S1130640BB27F00DB11D639FAA27F00DB11DAA1F92
S1130650649F6627B00DA11D661F829F2227B00DDF
S1130660A11D621F739FB00DA11D621F839FA00D6A
S1130670611D221F749F3327A00D611D231F849FBA
S1130680600D211D822F762F6A2F11249F57504011
S11306908AF0E1F088234AF0EE0FFF1FBB1F661FAC
S11306A0771F881F91505040A9F79E3F510570F065
S11306B05CCFA6CF5F3FECF3983EDCF3869577954D
S11306C06795B795F795E7959F5FC1F7FE2B880F60
S11306D0911D9695879597F90895EE0FFF1F0024B5
S11306E0001C0BBE0790F691E02D0994F894FFCFFF
S11306F048F176445CFF434400D02444A4F0F6431C
S11307000000C443A4D0A443A4D082430100000049
S9030000FC
